{
  "contractName": "NeebytesDistribuition",
  "abi": [
    {
      "inputs": [],
      "name": "originalValue",
      "outputs": [
        {
          "internalType": "uint256",
          "name": "",
          "type": "uint256"
        }
      ],
      "stateMutability": "view",
      "type": "function",
      "constant": true
    },
    {
      "inputs": [],
      "name": "distribute",
      "outputs": [],
      "stateMutability": "payable",
      "type": "function",
      "payable": true
    }
  ],
  "bytecode": "0x6080604052600080546001600160a01b031990811673251d1a4b4d59e386a50f913c50f4be6f49ac732d179091556001805490911673e96ae680ef223687e837d10ea643199c333ee4cd17905534801561005857600080fd5b50610251806100686000396000f3fe6080604052600436106100295760003560e01c8063052aa7e11461002e578063e4fc6b6d14610056575b600080fd5b34801561003a57600080fd5b5061004460025481565b60405190815260200160405180910390f35b61005e610060565b005b34478111156100b65760405162461bcd60e51b815260206004820152601960248201527f496e73756666696369656e742062616c616e63652e2e2e2e2e0000000000000060448201526064015b60405180910390fd5b7343b15f703e872da66256c8c58b69938deb199425331461010d5760405162461bcd60e51b815260206004820152601160248201527014195c9b5a5cdcda5bdb8819195b9a5959607a1b60448201526064016100ad565b606e61011a8260646101c3565b61012491906101e2565b60028190556000546001600160a01b0316906108fc906101449084610204565b6040518115909202916000818181858888f1935050505015801561016c573d6000803e3d6000fd5b506001546002546040516001600160a01b039092169181156108fc0291906000818181858888f193505050501580156101a9573d6000803e3d6000fd5b5050565b634e487b7160e01b600052601160045260246000fd5b60008160001904831182151516156101dd576101dd6101ad565b500290565b6000826101ff57634e487b7160e01b600052601260045260246000fd5b500490565b600082821015610216576102166101ad565b50039056fea2646970667358221220ebd3952fbe2f6c3c1c7cd4a5617500cf5d3a288eb7e04dbf0ca08b5d7d3ff68d64736f6c634300080d0033",
  "immutableReferences": {},
  "source": "// SPDX-License-Identifier: GPL-3.0\r\npragma solidity >=0.4.22 <0.9.0;\r\n\r\ncontract NeebytesDistribuition {\r\n\r\n    address private neeWallet = payable(0x251D1A4b4d59E386a50f913c50F4BE6F49ac732d);\r\n    address private poolWallet = payable(0xe96Ae680Ef223687e837d10eA643199C333ee4cD);\r\n\r\n    uint public originalValue;\r\n    uint256 constant WEI_CAP = 2**256 - 1;\r\n \r\n\r\n    function distribute() payable public {\r\n        uint value = msg.value;\r\n\r\n        require(value <= address(this).balance, \"Insufficient balance.....\");\r\n        require(value <= WEI_CAP, \"Value too big\");\r\n\r\n        require(msg.sender == 0x43B15f703e872DA66256c8C58B69938Deb199425, \"Permission denied\");\r\n\r\n        originalValue = (value * 100) / (100 + 10);\r\n \r\n        payable(neeWallet).transfer(value - originalValue);\r\n\r\n        payable(poolWallet).transfer(originalValue);\r\n \r\n    }\r\n\r\n   \r\n}",
  "sourcePath": "C:\\PROJETOS\\NEW_NEEBYTES\\smartcontract\\v1\\contracts\\NeebytesDistribuition.sol",
  "compiler": {
    "name": "solc",
    "version": "0.8.13+commit.abaa5c0e.Emscripten.clang"
  },
  "schemaVersion": "3.4.16",
  "updatedAt": "2023-11-06T22:52:19.117Z",
  "networkType": "ethereum",
  "devdoc": {
    "kind": "dev",
    "methods": {},
    "version": 1
  },
  "userdoc": {
    "kind": "user",
    "methods": {},
    "version": 1
  }
}